:020000040001F9
:10000000B07602C001FD010059E70100D1FC0100FA
:10001000D1FC0100D1FC0100D1FC0100D1FC0100A8
:10002000D1FC0100D1FC0100D1FC0100CBE50100B5
:10003000D1FC0100D1FC01007FE50100E50A0100CF
:100040000DE601000DE601000DE601000DE60100E0
:100050000DE601000DE601000DE601000DE60100D0
:100060000DE601000DE601000DE601000DE60100C0
:100070000DE601000DE601000DE601000DE60100B0
:100080000DE601000DE601000DE601000DE60100A0
:100090000DE601000DE601000DE601000DE6010090
:1000A0000DE601000DE601000DE601000DE6010080
:1000B0000DE601000DE601000DE601000DE6010070
:1000C0000DE601000DE601000DE601000DE6010060
:1000D0000DE601000DE601000DE601000DE6010050
:1000E0000DE601000DE601000DE601000DE6010040
:1000F0000DE601000DE601000DE601000DE6010030
:100100000DE601000DE601000DE601000DE601001F
:100110000DE601000DE601000DE601000DE601000F
:100120000DE601000DE601000DE601000DE60100FF
:100130000DE601000DE601000DE601000DE60100EF
:100140000DE601000DE601000DE601000DE60100DF
:100150000DE601000DE601000DE601000DE60100CF
:100160000DE601000DE601000DE601000DE60100BF
:100170000DE601000DE601000DE601000DE60100AF
:10018000DFF80CD00FF07CFD00480047AF05010000
:10019000B83402C0BDEEC01A11EE100A7047BDEEB1
:1001A000401A11EE100A70472DE9F84F04460E462A
:1001B000174698462546B146BA46CDF80080D5F890
:1001C00004B0DBF8040010B96FF0220006E0DBF8A1
:1001D00004C0524649462846009BE047BDE8F88FD8
:1001E0002DE9F04704460E4617462546B046B94667
:1001F000D5F804A0DAF8100010B96FF0220005E07D
:100200004A4641462846DAF810309847BDE8F0875C
:100210002DE9F04704460E4617462546B046B94636
:10022000D5F804A0DAF80C0010B96FF0220005E050
:100230004A4641462846DAF80C309847BDE8F08730
:1002400030B589B005460124E848006830B105AAF8
:100250000621E6480068FFF7C3FF0446F4B906AB81
:1002600002220021E2480068FFF79EFFE148407843
:10027000E04908709DF81400487008460078FF288F
:1002800009D0084600788DF8040001AA0521D74856
:100290000068FFF7A5FFD84805F01DFC09B030BD88
:1002A0002DE9F04389B0D5A009F0D4FA04462546DB
:1002B000072601274FF0000800BFD5F804903B4601
:1002C000324641462846D9F800C0E04700BF00BF8B
:1002D000254600BF00BFD5F804903B463246414654
:1002E0002846D9F804C0E04700BF00BFC5A009F008
:1002F000B1FABF4908600846DFF810830668354642
:100300004746D5F80490D9F8000000B904E0394612
:100310002846D9F80020904700BF0120BC4908704A
:10032000F020BA490860A0204860FF20019000201A
:100330000290B748007800900620039007200490B0
:1003400000200690B34805906B4601220021A84882
:100350000068FFF729FF0020ADF81C00ADF81E0073
:10036000AA48008880B2ADF82000A848808880B2F2
:10037000ADF8220007AB062200219D480068FFF778
:1003800013FF07AB0722002199480068FFF70CFF15
:10039000974805689D484068A0F10A066F68F86AAA
:1003A00018B131462846FA6A904700BF90489A4FE4
:1003B00005686E682EB1706B18B139462846726BAD
:1003C000904700BF09B0BDE8F0832DE9F04F93B02E
:1003D00000240120029091A009F03CFA93490860A2
:1003E00008464FF00108066835464746D5F80490A0
:1003F000D9F8000000B904E039462846D9F80020B1
:10040000904700BF89484FF0010A4FF0000B066883
:10041000CDF804A035465746D846DDF80490686804
:1004200000900098406800B907E000984B464246AB
:100430003946D0F804C02846E04700BF00200790A6
:1004400007AA082179480068FFF7E2FE044624B1B4
:100450006FF0220013B0BDE8F08F0020069006AACE
:10046000032172480068FFF7D3FE044614B16FF011
:100470002200EFE70020059005AA01216B480068E3
:10048000FFF7C6FE044614B16FF02200E2E7002039
:10049000049004AA022165480068FFF7B9FE0446EB
:1004A00014B16FF02200D5E72120039003AA0421A4
:1004B0005E480068FFF7ACFE044614B16FF02200FE
:1004C000C8E75BA009F0C6F94849086001208DF82B
:1004D0002C00F020ADF82800A020ADF82A00084636
:1004E0000DF12808066835464746D5F80490D9F836
:1004F000080000B904E039462846D9F8082090479A
:1005000000BF0020ADF82200ADF820003F48008871
:100510004000401E80B2ADF824003C488088401E58
:1005200080B2ADF8260008AA022130480068FFF723
:1005300057FE02AA01212D480068FFF751FE042052
:100540008DF8400033481190304800682F494968C1
:10055000484300EB40008000129010AA032123487A
:100560000068FFF73DFE00208DF830000CAA042142
:100570001E480068FFF734FE1C484FF0020806686A
:1005800035464746D5F80490D9F8000010B96FF009
:10059000220004E039462846D9F80020904700BFE1
:1005A000044614B16FF0220054E7002052E708B56A
:1005B0000024FFF775FE00BFFF200E490870487049
:1005C000FFF703FF044614B11AA00DF00CFC002045
:1005D00000906A46062115480068FFF719FE044698
:1005E00014B11BA00DF0FFFB00BFFEE7942002C07A
:1005F000902002C09D2002C0005002404750494F49
:1006000042000000564F555400000000B83402C0AC
:100610009C2002C00000A0C04102010043414D45A2
:1006200052415F4F56353634305F3000982002C05B
:1006300056494E0074686572652061726520736F5B
:100640006D657468696E672077726F6E670A000067
:100650006175746F20666F637573206661696C20C5
:100660000A00000070B5054600BF2020EFF311819D
:1006700080F31188BFF34F8FBFF36F8F00BF0C461D
:1006800000BF4FF0FF3008490860091D086000BF37
:10069000204680F31188BFF34F8FBFF36F8F00BFE9
:1006A00000F011F8002070BD28ED00E008B503202F
:1006B0008DF800000020ADF802000AF0AAFA6846A2
:1006C0000AF095F908BD10B5FFF7F0FF10BD7047AF
:1006D000704710B50446FFF7FBFF00202070FFF7BE
:1006E000F6FF10BD70B504460025FFF7F1FF207836
:1006F000012801D1022502E00120207000BFFFF790
:10070000E6FF284670BD10B50446FFF7E1FF002064
:100710002070FFF7DCFF10BD002070477047704766
:100720007047704730B505460B460024012B0DD1AC
:100730001168E2480160012910D002290ED0032976
:100740000CD004290AD06FF0150030BD022B05D162
:10075000DA4800681060D9480068F6E72046F4E7F8
:100760002DE9F04385B0064600273068C06804686C
:10077000B5683068D0F80C8005F10809B4F1402F55
:100780000FD1002028714FF49640009001208DF881
:10079000040003208DF8050000208DF80600C848ED
:1007A0000290C84884420FD1012028714FF496402E
:1007B000009001208DF8040003208DF80500002032
:1007C0008DF80600BE480290BF4884420FD1022037
:1007D00028714FF49640009001208DF8040003200A
:1007E0008DF8050000208DF80600B5480290B74846
:1007F00084420FD1032028714FF4964000900120CD
:100800008DF8040003208DF8050000208DF8060007
:10081000AB4802906A462146484603F01FFC074653
:100820001FB1384605B0BDE8F0833046D8F808104F
:1008300088470020F6E770B504460D462068C0687A
:10084000066800BF304604F0C2FA0028FAD03046ED
:1008500004F00EFB2870002070BD70B504460D46F4
:100860002068C06806682946304604F0F1FA284638
:1008700070BD70B504462068C0680568284604F05D
:10088000D0FA28B1284604F0D2FA08B1012070BD90
:100890000020FCE72DE9F04104462546AE682868B3
:1008A000C0680768384604F063FA10B1384604F0AF
:1008B00065FA384604F0BBFA10B1384604F0BDFAC8
:1008C000306810B1284631688847BDE8F0812DE9CD
:1008D000F0410546AE6834797CB97D4B7D4A0021F4
:1008E00012200DF03FFF0022032112200DF0DCFE4C
:1008F000122712200DF09CFE3CE0012C0FD1764B0C
:10090000744A002113200DF02DFF00220321132033
:100910000DF0CAFE132713200DF08AFE2AE0022CE8
:100920000FD16E4B6B4A002114200DF01BFF0022EB
:10093000032114200DF0B8FE142714200DF078FECA
:1009400018E0032C0FD1664B624A00213C200DF0C9
:1009500009FF002203213C200DF0A6FE3C273C208D
:100960000DF066FE06E0042C04D0052C02D0062C07
:1009700000D000BFBDE8F0812DE9F04105460E46EC
:10098000174600242868C068D0F8008005E020469B
:10099000641C315C404604F05BFABC42F7DB204645
:1009A000BDE8F0812DE9F04105460E4617460024CA
:1009B0002868C068D0F8008006E0404604F058FA85
:1009C000C2B22046641C3254BC42F6DB2046BDE86D
:1009D000F08170B504462068C06805680A21284681
:1009E00003F066FD70BD70B504462068C0680568F8
:1009F0000A21284603F08CFD70BD70B504462068BE
:100A0000C0680568284604F0B3F970BD70B50446A7
:100A10002068C06805680521284603F049FD70BDBF
:100A200070B504462068C06805680521284603F0B3
:100A30006FFD70BD70B504462068C0680568284623
:100A400004F08AF970BD70B504462068C068056876
:100A5000284604F0B6F970BD70B504462068C06839
:100A60000568284604F0D1F970BD70B504462068C9
:100A7000C0680568284604F0CEF970BD70B504461C
:100A80002068C0680568284604F095F918B1284622
:100A900004F097F938B9284604F064F928B12846DB
:100AA00004F066F908B1012070BD0020FCE70146A2
:100AB000012070478268116070470000A02002C0CA
:100AC00000127A00005000400060004000D0034057
:100AD0008C2D02C095080100A02D02C0B42D02C0CB
:100AE000C82D02C010B50446234800682349096890
:100AF000084421490860224800680CF02DF90FF0E5
:100B0000D1F810BD70B50346072200BF00BF1B49D6
:100B10000968481E4FF0E021486100214FF0E024B1
:100B2000A16100BF481E0121002804DB4C07250EEF
:100B3000144C255406E04C07260E134C00F00F050C
:100B40002D1F665500BF4FF0E020026100204FF0DE
:100B5000E021886170BD00BF074801684FF0E020C8
:100B600040694FF0E0239B69C21A03480068814244
:100B7000F2D1881870470000A42002C0EC2502C002
:100B8000F02502C000E400E018ED00E070B5044676
:100B90000D4600BF6668294620467268904770BDC2
:100BA00010B504460A2C04D10D210F480068FFF748
:100BB000EDFFE1B20C480068FFF7E8FF204610BDEA
:100BC00010B50A480DF082FC08480CF02CFF10BD4F
:100BD00010B5044606A008F03DFE03490860FFF783
:100BE000EFFF002010BD0000A82002C0A10B0100F3
:100BF000554152545F320000014621B100BF00BF91
:100C0000086800BF70470020FCE710B504F04BFAFD
:100C100004F044FA10BD30B501468B680868C4681A
:100C20002268106A9D682843106200BF00BF002040
:100C300030BD30B501468B680868C4682268106A08
:100C40009D68A843106200BF00BF002030BD2DE9A1
:100C5000F04104460D461646A768324629463846F6
:100C600000F030F90020BDE8F0812DE9F0410546A3
:100C70000E461746AC6846B90121B940A068084342
:100C8000A0602846FFF7C7FF02E04FF0FF30A060EA
:100C90000020BDE8F0812DE9F04105460E461746DB
:100CA000AC6846B90121B940A0688843A0602846D5
:100CB000FFF7BFFF01E00020A0600020BDE8F08149
:100CC0002DE9F047044627463868D0F80C90D7F84D
:100CD000088000BF00BFD9F80060D8F80800B16BE9
:100CE00000EA0105B06B284000B1B5632A463946D9
:100CF000404600F029F9BDE8F08770B50546FFF7DA
:100D000084FFF84BF84A002105200DF02BFD00224E
:100D1000012105200DF0C8FC052405200DF088FCFC
:100D2000002070BD70B50546FFF76FFFEF4BEE4A30
:100D3000002106200DF016FD0022012106200DF0F5
:100D4000B3FC062406200DF073FC002070BD70B5C6
:100D50000546FFF75AFFE64BE34A002107200DF056
:100D600001FD0022012107200DF09EFC0724072031
:100D70000DF05EFC002070BD70B50546FFF745FF25
:100D8000DC4BD94A002108200DF0ECFC00220121A7
:100D900008200DF089FC082408200DF049FC0020F3
:100DA00070BD70B50546FFF730FFD34BCE4A00212A
:100DB00027200DF0D7FC0022012127200DF074FC24
:100DC000272427200DF034FC002070BD70B50546A7
:100DD000FFF71BFFC94BC44A002128200DF0C2FCBD
:100DE0000022012128200DF05FFC282428200DF08E
:100DF0001FFC002070BD70B50546FFF706FFC04B15
:100E0000B94A002129200DF0ADFC00220121292042
:100E10000DF04AFC292429200DF00AFC002070BDA9
:100E200070B50546FFF7F1FEB64BAF4A00212A2008
:100E30000DF098FC002201212A200DF035FC2A2417
:100E40002A200DF0F5FB002070BD70B50546AE4BB5
:100E5000A54A00212B200DF085FC002201212B202A
:100E60000DF022FC2B242B200DF0E2FB002070BDA6
:100E700070B50546FFF7C9FEA44B9B4A00212C2004
:100E80000DF070FC002201212C200DF00DFC2C2413
:100E90002C200DF0CDFB002070BD70B50546FFF78E
:100EA000B4FE9B4B904A00212D200DF05BFC0022EC
:100EB00001212D200DF0F8FB2D242D200DF0B8FB85
:100EC000002070BD2DE9F04704460E46904600BF55
:100ED00000BF00BF00BFB8F1000F1AD0254637464B
:100EE000284600F05BFA81464946384600F050FA41
:100EF0003946284600F04EFA00BF686838B92846DF
:100F000000F04CFA81464946284600F045FA00BFF9
:100F100018E0A14637464FF0000A484600F03EFA76
:100F200005460CE0BD4205D13A465146484600F020
:100F300038FA07E0AA462846FFF75EFE0546002D70
:100F4000F0D100BFBDE8F0872DE9F04107460D461E
:100F50001646384600F022FA18B1384600F01EFA5C
:100F600000E00020044616E0A068304030B100BF29
:100F700000BF324621462846636898474CB1204658
:100F8000FFF73AFE18B12046FFF736FE02E00020D8
:100F900000E000200446002CE6D1BDE8F0812DE9F8
:100FA000F04786B006460F4614461D463068D0F816
:100FB0000C804FF00009CFB9D8F800A0012000FA4A
:100FC00004F9CDF8049025F440700290C5F3012097
:100FD0000390200E049000BF00BF00BF00BF01A916
:100FE000504604F017F900BF00BF04E06FF0220084
:100FF00006B0BDE8F0870020FAE72DE9FF5F07465D
:10100000884691469A460020039000268346029027
:10101000002401903868C06800900098056801209D
:1010200000FA09F00190B8F1000F04D06FF022002F
:1010300004B0BDE8F09F3748854202D100200390FC
:101040003AE03548854202D10120039034E033482C
:10105000854202D1022003902EE03148854202D120
:101060000320039028E02F48854202D104200390FA
:1010700022E02D48854202D1052003901CE02B4838
:10108000854202D10620039016E02948854202D10C
:101090000720039010E02748854202D108200390E2
:1010A0000AE02548854202D10920039004E0234844
:1010B000854201D10A2003900026B5E0012000FA04
:1010C00006FB019800EA0B000290029858456ED189
:1010D000039806EB0014BAF1000F69D1102C2FD23F
:1010E0000C4A56E09C2C02C0C10C0100B02C02C07E
:1010F000C42C02C0D82C02C0EC2C02C0002D02C0AF
:10110000142D02C0282D02C03C2D02C0502D02C05B
:10111000642D02C000000140001001400020014089
:10112000003001400040014000500140006001409B
:1011300000700140008001400090014000A001408B
:10114000202C01D2AE4A24E0302C01D2AD4A20E05E
:10115000402C01D2AC4A1CE0502C01D2AB4A18E022
:10116000602C01D2AA4A14E0702C01D2A94A10E0E6
:10117000802C01D2A84A0CE0902C01D2A74A08E0AA
:10118000A02C01D2A64A04E0B02C01D2A54A00E06E
:101190000022C4F3C001491C02EB812204F00703C2
:1011A0000121994002EB8100002104F0C4F93AE0EA
:1011B000102C01D29C4A28E0202C01D2904A24E035
:1011C000302C01D28F4A20E0402C01D28E4A1CE004
:1011D000502C01D28D4A18E0602C01D28C4A14E0C8
:1011E000702C01D28B4A10E0802C01D28A4A0CE08C
:1011F000902C01D2894A08E0A02C01D2884A04E050
:10120000B02C01D2874A00E00022C4F3C001491C7F
:1012100002EB812204F007030121994002EB8100D7
:10122000012104F088F9761C102EFFF447AF00204E
:10123000FEE62DE9FF4F83B00746884691463868A1
:10124000C06802904FF0000A0026B34600200190CB
:101250000024009002980568012000FA09F000902F
:10126000B8F1000F04D06FF0220007B0BDE8F08F96
:101270006D48854202D14FF0000A3AE0604885424D
:1012800002D14FF0010A34E05E48854202D14FF0AE
:10129000020A2EE05C48854202D14FF0030A28E0A2
:1012A0005A48854202D14FF0040A22E0584885424C
:1012B00002D14FF0050A1CE05648854202D14FF09A
:1012C000060A16E05448854202D14FF0070A10E0A2
:1012D0005248854202D14FF0080A0AE05048854240
:1012E00002D14FF0090A04E04E48854201D14FF087
:1012F0000A0A002648E0012000FA06FB009800EAEE
:101300000B000190019858453DD106EB0A14102CB2
:1013100001D2454A28E0202C01D2394A24E0302C61
:1013200001D2384A20E0402C01D2374A1CE0502C30
:1013300001D2364A18E0602C01D2354A14E0702CF4
:1013400001D2344A10E0802C01D2334A0CE0902CB8
:1013500001D2324A08E0A02C01D2314A04E0B02C7C
:1013600001D2304A00E00022C4F3C001491C02EB64
:10137000812204F007030121994002EB810004F06F
:10138000E9F806990860761C102EB4D300206CE7AB
:10139000016070470160704741607047014608680E
:1013A00070472DE9F04105460E4614469EB900BF30
:1013B0002068074639462846FFF7ECFF00BF6868FB
:1013C000A04217D12846FFF7E9FF074639462846CD
:1013D000FFF7E2FF0EE000BF2068074639463046BF
:1013E000FFF7D6FF00BF6868A04203D13146284608
:1013F000FFF7D2FF00212046FFF7CAFFBDE8F081CA
:101400000010014000200140003001400040014038
:101410000050014000600140007001400080014028
:101420000090014000A00140000001402DE9F0477C
:1014300004468A46154600262068C768D7F800800B
:10144000A9464946404603F0E5FE06463046BDE85B
:10145000F08710B503460C461868C16848681060EC
:10146000002010BD03466FF02200704703466FF066
:101470002200704701460020704700214170017032
:101480008170704710B5024653789078FF2800D1DC
:1014900010BD5478D01C01555078FE2801D1002091
:1014A00001E05078401C50709078401C90701846B5
:1014B000EEE70246907808B9002070471378D01CF8
:1014C000C05C08700120F8E70246907808B9002057
:1014D00070471078FE2801D1002001E01078401CF0
:1014E00010709078401E90700120F1E7F0B5024630
:1014F0000B460021FF2400254E1E4F1E00BF20E09A
:10150000101D00EB0110007BA8B9101D00EB0110AD
:10151000006880B1101D00EB0110406858B1101D2B
:1015200000EB01100068B04205D0101D00EB011067
:101530000068B84200D102E00C46012504E0481CD6
:10154000C1B250788842DBDC00BF0DB90020F0BD8D
:101550004FF0010C101D00EB041080F80CC01C7043
:101560000120F4E72DE9F04305460A46AB6803F590
:10157000927100240027A4460026506808B19068A4
:1015800010B90120BDE8F08350680F3020F00F0C37
:101590001078042803DD04204870107001E01078F2
:1015A000487093F88001012801D1032001E093F8ED
:1015B0008701074693F88601032805D192F8008039
:1015C0009068B0FBF8F607E0B3F88201B3F88481C5
:1015D00000FB08F000FB07F6002413E0081D00EBF9
:1015E0000410466004FB06C8081D00EB0410C0F898
:1015F00000804FF00008081D00EB041080F80C80FC
:10160000601CC4B24878A042E8DC08E04878401E7C
:10161000487048781070487808B90120B2E74878D7
:10162000401E01F1040808EB0010D0F80090487843
:10163000401E08EB001040684844D2E90189C844C4
:101640004045E3D800209DE78268C2F888117047C2
:1016500010B50446204604F037FA204604F042FA5A
:10166000204604F08CFA606800F00400606010B15D
:10167000FEA00CF0B8FB204604F03BFA204604F034
:101680002AFA10BD2DE9F84F0746B846D8F8086089
:1016900006F5927406F12009D8F80000C0680568C4
:1016A000FF2000904FF0000AA86800F0020018B96F
:1016B000A86800F0040020B10720A8602846FFF7C2
:1016C000C7FFE86800F0010000284BD0A86800F0D0
:1016D0000100002846D00120A8602078FF2817D0FC
:1016E00096F88601032807D1284604F025FA2278C7
:1016F000211D01EB0211486021784846FFF7C2FE28
:1017000000BF0BF056FA2278211D01EB0211886010
:1017100069462046FFF7EAFE8246BAF1000F13D071
:101720009DF800002070284604F0E3F9201D9DF884
:10173000003000EB03104268201D00EB031001682D
:10174000284604F09AF904E0284604F0CBF9FF207B
:101750002070D6F8880128B14046D6F88821D6F8FE
:101760007C119047BDE8F88F2DE9F05F05462868A9
:10177000C668AC6804F5927804F1200A2868C0684D
:10178000D0F800B0002704F5B479484606F022FFEF
:1017900000BF4FF4802009F070FB112008F08EFD8F
:1017A000002020603079012801D1202000E00020B5
:1017B0006060B079012801D1802000E00020A060A5
:1017C0007079012801D1402000E00020E060002075
:1017D000206160612146584604F0FCF80020C4F8FE
:1017E0007C0184F8800100270CE0002108F104004E
:1017F00000EB0710416008F1040000EB07100160E6
:10180000781CC7B2042FF0DBFF2088F80000504698
:10181000FFF733FE2846B16888470020BDE8F09FF7
:1018200070B50546984B994A00212F200CF09AFF7D
:10183000002203212F200CF037FF2F242F200CF043
:10184000F7FE70BD2DE9F84F064689463068C0683E
:10185000D0F80080B56805F5927405F1200A0027DC
:10186000FF2000904FF0000B791E05F5B47000F0DA
:101870008EF900BF06E00021201D00EB0710017368
:10188000781CC7B26078B842F5DC69462046FFF79D
:101890002DFE8346BBF1000F07D105F5B47000F0B3
:1018A0007EF96FF02200BDE8F88F9DF800002070EF
:1018B0005046FFF7E2FD0720C8F80800201D9DF8FC
:1018C000001000EB01104368201D00EB0110494699
:1018D0000268404604F0B0F80721404604F043F99E
:1018E00005F5B47000F05BF90020DCE72DE9F0416C
:1018F00005462868C0680668AC6804F5927704F16C
:1019000020084FF0FF3104F5B47000F040F9304684
:1019100004F0A8F80721304604F02BF94046FFF701
:10192000ACFDFF20387004F5B47000F038F90020E9
:10193000BDE8F0812DE9F04106460D46B4683068F7
:10194000C06807684FF0FF3104F5B47000F01FF96C
:10195000287930B1012809D0022808D003280AD1FB
:1019600000E000BF012084F8870105E000BF0220ED
:1019700084F8870100E000BF00BF2879032803D165
:10198000384604F0D2F802E0384604F0C7F8287967
:1019900084F886012888A4F882016888A4F8840164
:1019A00004F5B47000F0FBF80020BDE8F08170B5DC
:1019B00006460D46B4684FF0FF3104F5B47000F0F0
:1019C000E6F894F886012871B4F882012880B4F80A
:1019D0008401688004F5B47000F0E1F8002070BD67
:1019E0002DE9FF5F80468A461446D8F80000C0689B
:1019F00000680390D8F808704FF00009BAF1080F9A
:101A00007ED2DFE80AF0C0041F4F5C8AA5B22068CE
:101A1000029097F88601012804D06FF0220004B0EC
:101A2000BDE8F09F029830B1039804F070F80120EF
:101A300087F8800105E0039804F062F8002087F839
:101A40008001A1E02646039804F030F8F088009069
:101A5000B388728834463188039804F014F8B0884B
:101A6000401C97F8871190FBF1F011E074686572E3
:101A7000652061726520736F6D657468696E67209B
:101A800077726F6E67200A00042E02C0851601006F
:101A9000A7F88201F088401CA7F88401039804F09D
:101AA0000CF871E0A34659464046FFF75BFD8146BE
:101AB000B9F1000F02D06FF02200B0E764E02546D4
:101AC00000BFD8F8081001F592702A78042A1BDAB2
:101AD0002B78021D02EB03121268AAB12B78021DAB
:101AE00002EB031252687AB12B78021D02EB03124B
:101AF00012686A602B78021D02EB0312526800E044
:101B000041E0AA60002200E001229146B9F1000FF5
:101B100002D06FF0220082E736E0254600BFD8F8F9
:101B2000080000F592712A78042A08DA002395F853
:101B300000C00A1D02EB0C121373002200E0012208
:101B40009146B9F1000F02D06FF0220067E71BE069
:101B500025462946404600F028F88146B9F1000F95
:101B600002D06FF022005AE70EE020680190019940
:101B7000039803F0E7FF8146B9F1000F02D06FF040
:101B800022004CE700E000BF00BF002047E770B52F
:101B900004460D462946204606F04EFD70BD10B5A0
:101BA0000446204606F0E0FD10BD2DE9F843064648
:101BB0000C46B76807F5927507F12008FF200090E2
:101BC0004FF0000969464046FFF773FC8146B9F1C2
:101BD000000F1FD09DF800002070281D9DF80010F8
:101BE00000EB011000686060281D9DF8001000EBFC
:101BF00001104068A060281D9DF8001000EB011046
:101C00008068E0609DF800104046FFF75DFC002012
:101C1000BDE8F8830120FBE710B52DED028BB0EE97
:101C2000408AB0EE480AFEF7B5FABDEC028B10BD53
:101C300010B52DED028BB0EE408AB0EE480AFEF7EB
:101C4000AEFABDEC028B10BD2DE9F0472DED048BF3
:101C50008EB005460C46D5F808802868C0684668EE
:101C60004FF000090027002008EE100A82469FED81
:101C7000FE0AF0EE408A9FEDFC0AB0EE409A411E4B
:101C800008F1340000F01BFA00200B900C900D902E
:101C90004FF480300B90E0690C900D970BA9304603
:101CA00004F025FB00200790089009900A90A06995
:101CB0000890CDF81C9000200990012207A9304619
:101CC00004F043FBA068A0EB090008EE100A1821FD
:101CD00001A80DF095FF2069C01B00EE100AB8EEB8
:101CE000400AF8EE480A80EE801AF0EE418A94ED40
:101CF000030AF8EE400A94ED050AB8EE400A80EEB9
:101D0000801AB0EE419A01208DF804008DED058A0D
:101D1000E06806902069C01B039060690490B0EEF3
:101D2000490AFFF779FFC0B28DF805009DF805005C
:101D300000EE900AF8EE600A79EE600A9FEDCB1A89
:101D400060EE810AB0EE600AFFF772FFC0B28DF854
:101D50000600B0EE680AFFF75FFFC0B28DF807001B
:101D60009DF8070000EE900AF8EE600A78EEE00AAF
:101D70009FEDBE1A60EE810AB0EE600AFFF758FFD1
:101D8000C0B28DF8080001AB3046D4E9001204F06F
:101D90001FFB01E00AF1010A706800F00200002850
:101DA000F8D00220706008F1340000F090F90020B3
:101DB0000EB0BDEC048BBDE8F0872DE9F04F93B079
:101DC00081468A4693461C46D9F80000C768D9F870
:101DD0000000C06800681290BBF10D0F71D2DFE8FF
:101DE0000BF09D072D354B50555E677179878F003D
:101DF0002546002007900990B8680890F8680A9076
:101E00002C4628680B9068680C90A8680D9068694B
:101E10000E90B8680F90F8681090A869010C8DF8C2
:101E20004610288B010A8DF84510287E8DF8440055
:101E3000524607A9129804F016F870E02068069040
:101E400052460699129804F097F968E0A046444675
:101E500098F8080001280AD15146129804F0AEF80B
:101E60005346D8E90012129804F034F803E05146C2
:101E7000129804F0B9F852E00121129804F0EAF93E
:101E80004DE00021129804F0E5F948E02646F2887A
:101E90003446B1885346129804F0F6F83FE02646DF
:101EA0007288344631885346129804F00FF936E0B0
:101EB000206805900598C2B25146129804F0D5F9F1
:101EC0002DE02BE02068029052460299129804F00F
:101ED00039F924E020680490049820B15146129802
:101EE00004F040F803E05146129804F051F816E06F
:101EF0002068039052460399129803F0CFFF0EE03A
:101F000020680190019820B15146129804F082F89F
:101F100003E05146129804F093F800E000BF00BFC0
:101F2000002013B0BDE8F08F70B504460E4620685F
:101F3000C06805680121284604F086F96E62012117
:101F4000284604F07BF970BD70B504462068C0686F
:101F500005680121284604F077F970BD8268916414
:101F600070472DE9F04104462546AF682868C068EF
:101F70000668F06900F0010050B1306A00F001001D
:101F800030B101203062B86C10B12846B96C884776
:101F9000BDE8F0812DE9FC4706463068C468B568A5
:101FA0003068C068D0F800A005F13407384606F064
:101FB00011FB00BFD4E90889E7694FF4002008F05D
:101FC0005CFF122008F07AF90121802008F092FECF
:101FD000FBB208F0FF011022002008F058FE4FF479
:101FE0008050009009F0FF008DF80400684608F06A
:101FF00080FF4FF4003008F040FF102008F05EF939
:1020000000BF002028606860A860E860208A401E49
:102010002861608A401E6861208AA18A0844401EA7
:10202000A861608AE18A0844401EE861208AA18A8A
:102030000844A1680844401E2862608AE18A084476
:10204000E1680844401E6862208AA18A0844A168A9
:102050000844218B0844401EA862608AE18A084433
:10206000E1680844618B03E0000000000000804349
:102070000844401EE862002132204155312041557C
:10208000002085F830002946504603F089FE30468E
:10209000A16A88470020BDE8FC8770B50546FE4B65
:1020A000FE4A002130200CF05DFB0022032130208D
:1020B0000CF0FAFA302430200CF0BAFA70BD70B58A
:1020C00004460D462946204606F0B6FA70BD10B506
:1020D0000446204606F048FB10BD2DE9F0410446B9
:1020E0000D462068C668A7684FF0FF3107F134003D
:1020F000FFF7E5FFB0682860F068686007F134001A
:10210000FFF7E5FF0020BDE8F0812DE9F0418AB03E
:1021100005460C46AF682868C06846684FF000085E
:102120004FF0FF3107F13400FFF7C9FF002007909F
:10213000089009904FF440300790A0680890E0683C
:10214000099007A9304604F0D2F8182101A80DF033
:1021500057FD00208DF80400206805906068069007
:1021600001AB3046D4E9042104F032F901E008F172
:102170000108706800F002000028F8D002207060AA
:1021800007F13400FFF7A3FF00200AB0BDE8F0819B
:102190002DE9F0418EB005460C46AF682868C0684E
:1021A00046684FF000084FF0FF3107F13400FFF7A9
:1021B00086FF00200B900C900D900B90A0680C9067
:1021C00020690D900BA9304604F091F8002007908B
:1021D000089009900A90A0680890E0680790012292
:1021E00007A9304604F0B1F8182101A80DF008FD48
:1021F00000208DF80400206805906068069001AB0F
:102200003046D4E9051204F0E3F801E008F10108D2
:10221000706800F002000028F8D00220706007F11A
:102220003400FFF754FF00200EB0BDE8F0812DE927
:10223000FF4104460D461646A7682068C068D0F8DE
:1022400004804FF0FF3107F13400FFF738FF002022
:10225000009001900290039001208DF800000195FC
:102260000290701EC0B2039001226946404604F0FD
:10227000D0F907F13400FFF72AFF002004B0BDE8D1
:10228000F0812DE9F04F8FB004460F4690469946F5
:10229000DDF860A0A6682068C06845684FF0000BB4
:1022A0004FF0FF3106F13400FFF709FF00200C90DA
:1022B0000D900E904FF400300C9000200D900E9079
:1022C0000CA9284604F013F80020089009900A9001
:1022D0000B9009900890002208A9284604F035F8D0
:1022E000012208A9284604F030F8182102A80DF0B0
:1022F00087FC00208DF80800CDF818A00120079079
:1023000002A84B46424639460090284604F00AF996
:1023100001E00BF1010B686800F002000028F8D022
:102320000220686006F13400FFF7D1FE00200FB0F4
:10233000BDE8F08F2DE9F04F91B004460D461646EA
:102340001F46DDF868A0D4F808802068C068D0F87F
:1023500004904FF0000B4FF0FF3108F13400FFF70D
:10236000AEFE06F07F40B0F17F4F09D1CAF80050B1
:1023700008F13400FFF7ABFE002011B0BDE8F08F8C
:1023800085F07F40039086F07F40029000200E9001
:102390000F9010904FF400300E9000200F9010908E
:1023A0000EA9484603F0A3FF00200A900B900C9062
:1023B0000D900B900A900C90C7F1FF0000060D9055
:1023C00000220AA9484603F0C0FF00200B900A90A3
:1023D00001200C9038060D9001220AA9484603F00E
:1023E000B4FF182104A80DF00BFC00208DF810009C
:1023F00001200890099004A801AB02AA03A900904B
:10240000484604F08FF801E00BF1010BD9F8040005
:1024100000F002000028F7D00220C9F8040001985B
:1024200080F07F40CAF8000008F13400FFF74FFE4B
:102430000020A2E72DE9FF4F8FB0044688461E46D4
:10244000DDE91DABDDF87090A7682068C0684568BD
:1024500000200190411E07F13400FFF730FE0020FC
:102460000C900D900E904FF480300C90CDF834907D
:1024700000200E900CA9284603F039FF0020089098
:1024800009900A900B9009960890012208A9284605
:1024900003F05BFF182103E0182E02C0631F010048
:1024A00002A80DF0ADFB00208DF80800CDF818A0B3
:1024B000CDF81CB002AB41462846119A03F088FFC4
:1024C00002E00198401C0190686800F002000028BA
:1024D000F7D00220686007F13400FFF7F8FD002014
:1024E00013B0BDE8F08F2DE9F0418EB005460C46E3
:1024F000AF682868C06846684FF000084FF0FF31A9
:1025000007F13400FFF7DBFD00200B900C900D90DD
:102510004FF400300B9060690C9000200D900BA9D7
:10252000304603F0E4FE00200790089009900A90DE
:10253000E06808900020079001200990206AC0F10F
:10254000FF000A90002207A9304603F0FEFE206932
:1025500008900020079001200990206A0A9001222B
:1025600007A9304603F0F1FE182101A80DF048FB41
:1025700000208DF80400A0690590E069069001A88C
:102580000090304694E80E0003F0CCFF01E008F123
:102590000108706800F002000028F8D00220706086
:1025A00007F13400FFF793FD00200EB0BDE8F08185
:1025B0002DE9FF4F8FB0044616461F46DDE91DABDF
:1025C000DDF87090D4F808802068C0684568002065
:1025D0000190411E08F13400FFF771FD00200C90BE
:1025E0000D900E904FF480300C90CDF834A0CDF8C3
:1025F00038900CA9284603F07AFE00200890099034
:102600000A900B90052009900897012208A92846F6
:1026100003F09BFE182102A80DF0F2FA00208DF8BD
:102620000800CDF818B01F98079002A8334632462C
:1026300000902846109903F075FF02E00198401CB5
:102640000190686800F002000028F7D0022068605E
:1026500008F13400FFF73BFD002013B0BDE8F08F18
:102660002DE9F04104460D4616461F4600BFD4F83A
:1026700004803B46324629462046D8F804C0E0474D
:10268000BDE8F08110B90122F84B1A60704730B5EF
:1026900004460D4629462046FFF7F4FF30BD10B929
:1026A0000122F34B1A60704730B504460D462946A7
:1026B0002046FFF7F4FF30BD2DE9F04104462546E2
:1026C000AF683E1D304604F047F8BDE8F081014692
:1026D0000020704770B506460C461546E548294669
:1026E00002682046904770BD70B506460C461546F8
:1026F000E148294602682046904770BD2DE9FC411B
:1027000005460F462868C0680668AC6801970097C0
:10271000DA48864207D13C22D949201D0DF057FAEC
:102720000020207111E0D748864207D13C22D649CB
:10273000201D0DF04CFA0120207106E03C22D34907
:10274000201D0DF044FA0220207100214320015584
:102750000098C0F3001028B90121412001555621ED
:10276000A16402E00021412001550098C0F340100F
:1027700048B10098C0F3001010B9C549A16501E047
:10278000C449A16501E00021A1650098C0F3801053
:1027900018B101214520015502E0002145200155D5
:1027A0004520005D012805D1BB492165BB48018852
:1027B00054200153009800F0010018B1012084F862
:1027C000400006E0009800F0010010B9002084F8F5
:1027D00040000098C0F34200012802D002280DD129
:1027E00005E06421E1640021422001550CE04FF432
:1027F000C871E16401214220015505E06421E164D2
:1028000000214220015500BF00BF221D04F14001FC
:10281000304604F09BFD10B10120BDE8FC81002092
:10282000FBE70146002070472DE9F84F06460C46AD
:1028300017469846D6F808B0B5684FF0000A00BFB2
:102840004EE04120405D70B9207A00F0010050B99F
:10285000E0680090A08883B24146281D226804F0F9
:1028600043FE814632E04120405D70B9207A00F09D
:10287000010050B1E0680090A08883B24146281D55
:10288000226804F0EDFE814620E04120405D0128F1
:102890000CD1207A00F0010040B9A08882B2281D36
:1028A000E368216805F0C8F881460FE04120405DEB
:1028B00001280BD1207A00F0010038B1A08882B243
:1028C000281DE368216805F046F98146B9F1000F3B
:1028D00003D06FF00400BDE8F88F10340AF1010A4C
:1028E000BA45AEDB4846F6E770B505466C4B6D4A17
:1028F00000210F200BF036FF002203210F200BF0E8
:10290000D3FE0F240F200BF093FE70BD70B505466B
:10291000654B644A002111200BF024FF00220321A3
:1029200011200BF0C1FE112411200BF081FE70BDAF
:102930002DE9F04704460E4615464FF0000800BF4B
:10294000D4F804902B46324641462046D9F8007010
:10295000B84700BFBDE8F0872DE9F04704460E46B2
:1029600015464FF0000800BFD4F804902B463246BD
:1029700041462046D9F80470B84700BFBDE8F0874B
:102980002DE9F04186B005460C461646AF684FF07B
:102990000008E0B28DF8150020128DF8140005A88B
:1029A00001900220029000208DF80C003C230122AF
:1029B00001A93868FFF754FE804601960120029075
:1029C0008DF80C003C23012201A93868FFF748FE6E
:1029D0008046404606B0BDE8F0812DE9F04186B062
:1029E00005460C461646AF684FF0000820128DF8D9
:1029F0001400E0B28DF815008DF8166005A801905E
:102A00000320029002208DF80C003C23012201A932
:102A10003868FFF725FE8046404606B0BDE8F081E5
:102A20002DE9F04107460C4615460026B0461CB974
:102A30006FF02200BDE8F0810DE0A27821883846D1
:102A4000FFF7CBFF8046B8F1000F02D06FF02200F5
:102A5000F0E7761C241DAE42EFDB0020EAE770B5FC
:102A600006460D46281D092866D21FE0982202C09E
:102A70009C2202C0A02202C0582302C000E00040F5
:102A8000943702C000F00040D03702C00C3802C0BA
:102A9000E9260100D5260100703702C0942202C049
:102AA0002C2E02C0B9260100402E02C0DFE800F043
:102AB000050C131A21282F363D000222FB4930460F
:102AC000FFF7AEFF04463AE00222F9493046FFF72D
:102AD000A7FF044633E00222F6493046FFF7A0FF85
:102AE00004462CE00222F4493046FFF799FF0446E1
:102AF00025E00222F1493046FFF792FF04461EE02E
:102B00000222EF493046FFF78BFF044617E002220E
:102B1000EC493046FFF784FF044610E00222EA4900
:102B20003046FFF77DFF044609E00222E7493046C0
:102B3000FFF776FF044602E06FF0220070BD00BF91
:102B4000002C01DA2046F9E70020F7E770B50646C9
:102B50000D46E81C072836D2DFE800F0040B1219F6
:102B600020272E000222DA493046FFF759FF04469B
:102B70002CE00222D7493046FFF752FF044625E0F9
:102B80000222D5493046FFF74BFF04461EE00222E1
:102B9000D2493046FFF744FF044617E00222D049ED
:102BA0003046FFF73DFF044610E00222CD49304693
:102BB000FFF736FF044609E00222CB493046FFF713
:102BC0002FFF044602E06FF0220070BD00BF002C12
:102BD00001DA2046F9E70020F7E770B506460D4612
:102BE000E81C072836D2DFE800F0040B1219202772
:102BF0002E000B22BD493046FFF712FF04462CE0A1
:102C00000B22BB493046FFF70BFF044625E00B22A1
:102C1000B8493046FFF704FF04461EE00B22B649D0
:102C20003046FFF7FDFE044617E00B22B34930465D
:102C3000FFF7F6FE044610E00B22B1493046FFF7DD
:102C4000EFFE044609E00B22AE493046FFF7E8FEEE
:102C5000044602E06FF0220070BD00BF002C01DAD4
:102C60002046F9E70020F7E770B505460C46212C11
:102C70000CDA652245F208312846FFF7AEFEE2B2D3
:102C800045F202312846FFF7A8FE35E0252245F23D
:102C900008312846FFF7A1FE08224FF4A641284636
:102CA000FFF79BFE302245F201312846FFF795FEE3
:102CB000102245F202312846FFF78FFE002245F22E
:102CC00003312846FFF789FE082245F209312846DC
:102CD000FFF783FE302245F20A312846FFF77DFEDA
:102CE000042245F20B312846FFF777FE062245F213
:102CF0000C312846FFF771FE002070BD70B5054607
:102D00000C46022243F216012846FFF766FE022215
:102D100043F21C012846FFF760FE34B1022243F261
:102D200019012846FFF759FE05E0002243F2190178
:102D30002846FFF752FE002070BD70B506460D46CE
:102D4000E81C072836D2DFE800F0040B1219202710
:102D50002E0006226C493046FFF762FE04462CE046
:102D600006226A493046FFF75BFE044625E006224C
:102D700067493046FFF754FE04461EE006226549C7
:102D80003046FFF74DFE044617E006226249304602
:102D9000FFF746FE044610E0062260493046FFF782
:102DA0003FFE044609E006225D493046FFF738FE43
:102DB000044602E06FF0220070BD00BF002C01DA73
:102DC0002046F9E70020F7E770B506460D46052DC9
:102DD00027D2DFE805F0030A11181F000722514926
:102DE0003046FFF71DFE04461EE007224E493046DE
:102DF000FFF716FE044617E007224C493046FFF75E
:102E00000FFE044610E0072249493046FFF708FE4E
:102E1000044609E0072247493046FFF701FE044611
:102E200002E06FF0220070BD00BF002C01DA2046E6
:102E3000F9E70020F7E738B50546002000904FF489
:102E40007A74012243F223012846FFF7C6FD0322CC
:102E500043F222012846FFF7C0FD00BF6A4643F255
:102E600023012846FFF78CFD9DF8000000B906E01D
:102E7000052000F082F9601E80B2041EEED100BF72
:102E800014B96FF0220038BD0020FCE710B50446ED
:102E9000042243F222012046FFF79FFD802243F2E5
:102EA00022012046FFF799FD002010BD5E190200A7
:102EB000661902006E190200761902007E190200DE
:102EC000861902008E190200961902009E1902004E
:102ED000A6190200AE190200B6190200BE190200BE
:102EE000C6190200CE190200D6190200DE1902002E
:102EF0000A1A0200361A0200621A02008E1A020032
:102F0000BA1A0200E61A0200121B02002A1B020073
:102F1000421B02005A1B0200721B02008A1B0200A5
:102F2000A21B0200BA1B0200D61B0200F21B020009
:102F30000E1C02002A1C020010B50446CF22FA49DA
:102F40002046FFF76DFD10BD10B504460021204658
:102F5000FFF73AFF00212046FFF73FFE0021204601
:102F6000FFF77DFD00212046FFF7F0FD21212046DF
:102F7000FFF77AFE2046FFF789FF002010BDF8B565
:102F800007464FF40045002000904FF47A76202247
:102F90004FF440513846FFF720FD002409E0E34894
:102FA000025D29463846FFF718FD681C85B2601C93
:102FB00084B240F6ED708442F1D3002243F2220144
:102FC0003846FFF70AFD002243F223013846FFF797
:102FD00004FD002243F224013846FFF7FEFC0022E4
:102FE00043F225013846FFF7F8FC002243F22601A0
:102FF0003846FFF7F2FC002243F227013846FFF77C
:10300000ECFC002243F228013846FFF7E6FC7F2261
:1030100043F229013846FFF7E0FC00224FF440510B
:103020003846FFF7DAFC002400BF6A4643F2290164
:103030003846FFF7A5FC9DF80000702800D106E097
:10304000052000F09AF8701E80B2061EEDD100BF78
:1030500016B96FF02200F8BD0020FCE770B50546F8
:103060000E46AC68A06828B186F00102617EA068B7
:10307000FFF772FC70BD70B50546AC686068D0B1F2
:10308000217E00226068FFF767FC00212846FFF7D9
:10309000E5FF052000F071F801212846FFF7DEFF6B
:1030A000052000F06AF8217E01226068FFF754FCD9
:1030B000142000F062F870BD2DE9F04106460C4680
:1030C0001546B7687C83BD83221243F6080130465B
:1030D000FFF783FCE2B243F609013046FFF77DFCBF
:1030E0002A1243F60A013046FFF777FCEAB243F6AC
:1030F0000B013046FFF771FC0020BDE8F0812DE99F
:10310000F0470746BC684FF000091426E06806F057
:10311000A1FB2060206818B96FF02200BDE8F0879D
:10312000256800BFD5F8048031462846D8F800202D
:10313000904700BF4FF4802007F09FFE112007F05A
:10314000BDF8606906F086FBA060A06828B1617ECA
:1031500040F20112A068FFF7EBFB206906F07AFB52
:103160006060606828B1217E40F201126068FFF75C
:10317000DFFB0120E0770020D0E710B504462046B1
:1031800009F01AFB10BD2DE9FC4104460D46D4F8A8
:10319000088000260027002D3AD02046FFF76BFF5D
:1031A00001212046FFF75AFF01AA43F20A012046F7
:1031B000FFF7E6FB9DF8040007026A4643F20B01A5
:1031C0002046FFF7DDFB9DF80000074345F2406015
:1031D000874202D06FF022061BE0112243F2031156
:1031E0002046FFF7FAFB822243F208012046FFF750
:1031F000F4FB0A20FFF7C1FF2046FFF79DFE0646BD
:1032000006B106E0012088F81F000020BDE8FC811F
:1032100000BF00212046FFF721FF3046F6E72DE9E9
:10322000F0478046894617461E46D8F808400025D4
:10323000052F77D2DFE807F0032950658C0076B9B7
:103240002B223B494046FFF7EBFB0546E5B90F2033
:10325000A0774FF4A0706083F020A08314E0012ECB
:103260000ED12B2233494046FFF7DAFB05465DB904
:103270001E20A0774FF4A0706083F020A08303E0AD
:103280006FF02200BDE8F0877AE07EB92B222A4950
:103290004046FFF7C5FB0546EDB90F20A0774FF478
:1032A000207060834FF4F070A08314E0012E0FD1E2
:1032B0002B2222494046FFF7B3FB05465DB91E208D
:1032C000A0774FF4207060834FF4F070A08302E089
:1032D0006FF02200D6E753E07EB92B221849404612
:1032E000FFF79EFB05465DB90F20A0774FF4806085
:1032F00060834FF44070A08302E06FF02200C1E7CA
:103300003EE086B92B220F494046FFF789FB054670
:10331000EDB90F20A0774FF4A06060834FF43470B4
:10332000A08314E029E00FE0D60F0200E8FF0100BF
:10333000BE13020012130200161502006A140200E6
:103340006E160200C61702006FF022009AE717E01F
:103350007EB9272269494046FFF762FB05465DB901
:103360000F20A0774FF4226060834FF4F360A083B6
:1033700002E06FF0220085E702E06FF0220081E7B3
:1033800000BFB9F1000F09D0B9F1010F11D0B9F1A7
:10339000020F19D0B9F1030F2CD120E004225849B3
:1033A0004046FFF73DFB054615B9002084F8200094
:1033B00023E0042253494046FFF732FB054615B986
:1033C000012084F8200018E004224F494046FFF70E
:1033D00027FB054615B9022084F820000DE00822DD
:1033E0004A494046FFF71CFB054615B9032084F8FF
:1033F000200002E06FF0220044E700BF284641E7CA
:1034000003469A68508B0880908B4880907F0871A3
:1034100092F820004871002070472DE9F04781465E
:103420000F461546D9F808A00A2F63D2DFE807F047
:1034300062050C131A21284950572C68214648462A
:10344000FFF70DFB064656E02C6821464846FFF77D
:103450007DFB06464FE02C6821464846FFF7BDFB42
:10346000064648E02C6821464846FFF7FDFB064625
:1034700041E02C6821464846FFF740FC06463AE00A
:103480002C789AF81F0058B14846FFF778FD064699
:103490001EB16FF02200BDE8F08700208AF81F00FF
:1034A00024B94846FFF7C7FC064609E0012C04D1C1
:1034B0004846FFF7EBFC064602E06FF02200EAE721
:1034C00019E02C6821464846FFF737FC064612E013
:1034D0002C7821464846FFF777FC06460BE0A846C5
:1034E000B8F802204546B8F800104846FFF7E4FD5A
:1034F000064600E000BF00BF0020CCE772180200C3
:103500000E1902001E1902002E1902003E190200B7
:103510002DE9F0410546FE4ED6F8F07F002400BFAD
:1035200006E10120A040384000287CD055F8240056
:103530000028FAD055F824000068D0F8F00F0121D7
:10354000A140884355F824100968C1F8F00F002005
:1035500055F82410887255F82400407A02287DD14D
:1035600055F824000079EB49096801EB00108068E8
:10357000000A002856D155F82400006938B155F8E2
:10358000240055F8241000220B690221984755F8B1
:1035900024000079DF49096801EB00108068C0B29F
:1035A00055F824100979DB4A126802EB0111886092
:1035B00055F824000079D749096801EB00108168AB
:1035C00055F824004069401E41EA002055F82410B7
:1035D0000979D04A126802EB0111886055F824007D
:1035E0000079CC49096801EB0010806820F00700E1
:1035F00055F824100979C74A126802EB0111886056
:1036000055F824000079C349096801EB001080686F
:1036100040F0030055F824100979BE4A126802EB05
:103620000111886000E075E055F824000179B9487F
:10363000006800F5807000EB01108068000A002827
:1036400075D155F82400006938B155F8240055F8B3
:10365000241000220B690321984700E05BE055F835
:1036600024000179AB48006800F5807000EB011080
:103670008068C1B255F824000279A648006800F5B8
:10368000807000EB0210816055F824000179A14898
:10369000006800F5807000EB0110816855F8240087
:1036A0004069401E41EA002155F8240002799948FA
:1036B000006800F5807000EB0210816055F824006E
:1036C00001799448006800F5807000EB0110806873
:1036D00020F0070155F8240002798E48006800F5B3
:1036E000807000EB0210816055F824000179894850
:1036F000006800F5807000EB0110806840F0030165
:1037000055F8240002798348006800F5807000EBCA
:10371000021081600BE055F82400006938B155F8BB
:10372000240055F8241000220B6911469847641CA8
:10373000102CFFF4F6AEBDE8F08110B57648FFF727
:10374000E7FE10BD7549097811B90121734A11705E
:103750007047F0B504460B4600250026002700BF41
:1037600000BF6B48844201D00420F0BD63B9002142
:1037700007E0694850F8210010B90125CEB202E0F7
:10378000491C1029F5D322E000211DE001EB410086
:10379000DFF88CC160448078984214D101EB41007D
:1037A0001CF80000DFF870C15CF8200058B9012552
:1037B00001EB4100DFF868C11CF8006001EB41003B
:1037C0006044477802E0491C8C29DFD300BF0DB963
:1037D0000220CAE7167057700020C6E710B50346EE
:1037E00000BF00BF4A48834201D0042010BD0878C2
:1037F000494C54F8200008B10220F7E70878464CFD
:1038000044F8202013600878107148785071887847
:103810009071C878D07108791072C8795072886830
:1038200010610020907200BFE0E72DE9F0410646EC
:103830000D461446012700BF00BF042007F01DFB02
:10384000022006F03BFD074617B13846BDE8F0817F
:103850003068002030B9706840F001007060304678
:10386000FFF770FF224629463046FFF7B7FF0746AD
:103870000FB13846EAE72179012088402168C86203
:103880002068D0F8EC0F227901219140884321680B
:10389000C1F8EC0F2068D0F8F00F22790121914097
:1038A00088432168C1F8F00F2068C06C227901219B
:1038B000914008432168C864E879012802D0E8797A
:1038C000022861D1002122791248006800F5807039
:1038D00000EB02108160287941EA8010697940EAA2
:1038E000011040F0080022790A49096801F5807149
:1038F00001EB02118860E87902281ED12978054879
:10390000006800F5807000EB011080680AE000009C
:1039100000000240D82302C0003A02C0802502C045
:10392000DC2302C040F003012A78FE48006800F55D
:10393000807000EB0210816026E0A87890B92179B0
:10394000F848006800F5807000EB0110806840F0D6
:1039500002012279F348006800F5807000EB021044
:10396000816011E02179EF48006800F5807000EB7C
:103970000110806840F001012279EA48006800F5F2
:10398000807000EB02108160E87910B1E8790228BC
:1039900046D100202179E34A126802EB01118860C8
:1039A0002879002141EA8010697940EA011040F04D
:1039B00008002179DB4A126802EB01118860E8797E
:1039C00002280ED12878D749096801EB00108068D9
:1039D00040F003002978D34A126802EB0111886095
:1039E0001EE0A87870B92079CE49096801EB001073
:1039F000806840F002012079CA4A126802EB001088
:103A000081600DE02079C749096801EB00108068EA
:103A100040F001002179C34A126802EB011188606D
:103A2000C048006821688860BE48006800F5807062
:103A30002168C860A87828B92179012088402168C8
:103A4000086202E0207921684862E879012804D1FF
:103A5000217988402168086304E0217901208840A9
:103A600021684863A879012804D121798840216818
:103A7000886304E02179012088402168C8632079A7
:103A800008281ADA607900F00F0060712068D0F819
:103A9000F40F21798A000F21914088432168C1F8F1
:103AA000F40F60792179890088402168D1F8F41FEA
:103AB00008432168C1F8F40F1BE0607900F00F00A3
:103AC00060712068D0F8F80F217908398A000F2139
:103AD000914088432168C1F8F80F6079217908394D
:103AE000890088402168D1F8F81F08432168C1F88F
:103AF000F80F2068D0F8E80F21794A00032191409F
:103B000088432168C1F8E80FE878217949008840A6
:103B10002168D1F8E81F08432168C1F8E80F0120A7
:103B2000A072002092E670B50446257900BF00BF60
:103B3000A07A022801D1012070BD0120A84021688F
:103B4000C8622068D0F8EC0F0121A94088432168A1
:103B5000C1F8EC0F2068D0F8F00F0121A94088438C
:103B60002168C1F8F00F2068C16C0120A840014312
:103B70002068C1646C4951F8250018210CF040F808
:103B80000020694941F82500A07200BFD4E7FCB5C8
:103B90000446002500BF00BFB3F1807F01D9042097
:103BA000FCBD01F0704008B941F0404102F07040A6
:103BB00008B942F040420220A072207A012801D1C7
:103BC0005D0005E0207A022801D19D0000E01D463D
:103BD000E07930B94819401E01905019401E0090FC
:103BE0000EE0E079012804D101915019401E0090A7
:103BF00006E0E079022803D14819401E01900092A6
:103C0000607A01286ED127794648019E006800F548
:103C1000807000EB0710066027794248009E00681C
:103C200000F5807000EB0710466026793D4800687B
:103C300000F5807000EB06108068C6B2277939481D
:103C4000006800F5807000EB071086602679354823
:103C5000006800F5807000EB06108668581E46EA82
:103C6000002627792F48006800F5807000EB0710C8
:103C7000866026792B48006800F5807000EB0610FE
:103C8000806820F0070627792648006800F58070D4
:103C900000EB07108660A07990B92679214800686A
:103CA00000F5807000EB0610806840F0020627796E
:103CB0001C48006800F5807000EB0710866011E07A
:103CC00026791848006800F5807000EB06108068BF
:103CD00040F0010627791348006800F5807000EB7A
:103CE00007108660607AE8BB26790E4F01983F681E
:103CF00007EB0616306026790A4F00983F6807EBFD
:103D0000061670602079074E366806EB0010806852
:103D1000C0B22679034F3F6807EB0616B0602079E2
:103D2000004E03E0D82302C0003A02C0366806EB1A
:103D300000108668581E46EA00202679C64F3F6864
:103D400007EB0616B0602079C34E366806EB00100C
:103D5000806820F007002679BF4F3F6807EB061602
:103D6000B06000E01EE0A07970B92079BA4E3668E4
:103D700006EB0010806840F002002679B64F3F68DD
:103D800007EB0616B0600DE02079B34E366806EBFF
:103D90000010806840F001002679AF4F3F6807EBC4
:103DA0000616B0602068D0F8EC0F27790126BE40D7
:103DB00030432668C6F8EC0F2068806A2779012610
:103DC000BE4030432668B062A07940B9206840699F
:103DD00027790126BE4030432668706107E02068DD
:103DE000406927790126BE40B043266870610020F3
:103DF000D6E6FEB504461E46089D002300BF00BF60
:103E0000B5F1807F01D90420FEBD01F0704008B9F2
:103E100041F0404102F0704008B942F040420220B7
:103E2000A0726561207A012801D16B0005E0207A3B
:103E3000022801D1AB0000E02B46E07908B904204C
:103E4000E2E7E079012804D10291D018401E0190E8
:103E500006E0E079022803D1C818401E02900192C2
:103E6000F018401E00902779DFF8ECC10298DCF8CA
:103E700000C00CEB071738602779DFF8DCC1019828
:103E8000DCF800C00CEB071778602079724F3F68B0
:103E900007EB00108068C0B22779DFF8BCC1DCF8FE
:103EA00000C00CEB0717B86020796B4F3F6807EB39
:103EB00000108768681E47EA00202779DFF898C15C
:103EC000DCF800C00CEB0717B8602079624F3F6840
:103ED00007EB0010806820F007002779DFF878C131
:103EE000DCF800C00CEB0717B86020795A4F3F6828
:103EF00007EB0010806840F003002779DFF858C115
:103F0000DCF800C00CEB0717B860E079022814D188
:103F100094F804C05048009F006800F5807000EBE2
:103F20000C10076094F804C04B48019F006800F52E
:103F3000807000EB0C10476013E094F804C0464812
:103F4000029F006800F5807000EB0C10076094F889
:103F500004C04148009F006800F5807000EB0C1021
:103F6000476027793C48006800F5807000EB071037
:103F70008068C7B294F804C03748006800F58070C4
:103F800000EB0C10876027793348006800F58070DB
:103F900000EB07108768681E47EA002794F804C002
:103FA0002D48006800F5807000EB0C1087602779C1
:103FB0002948006800F5807000EB0710806820F049
:103FC000070794F804C02448006800F5807000EBEF
:103FD0000C10876027792048006800F5807000EB9E
:103FE0000710806840F0030794F804C01A4800687E
:103FF00000F5807000EB0C1087602068D0F8EC0FA3
:1040000094F804C0012707FA0CF738432768C7F86B
:10401000EC0F2068806A94F804C0012707FA0CF7B7
:1040200038432768B862A07950B92068406994F88D
:1040300004C0012707FA0CF738432768786109E0C4
:104040002068406994F804C0012707FA0CF7B843C8
:10405000276878610020D7E6D82302C07CB50546E2
:104060000C4616460DB104B116B96FF003007CBDC5
:10407000B4F1402F08D1252006F020F9012006F0E8
:1040800024FFFE48009059E0FD48844209D12620D3
:1040900006F014F9022006F018FFF848401C0090C2
:1040A0004CE0F848844209D1272006F007F90420A3
:1040B00006F00BFFF148C01C00903FE0F24884423C
:1040C00009D1282006F0FAF8082006F0FEFEEB4899
:1040D000C01D009032E0ED48844209D1292006F04D
:1040E000EDF8102006F0F1FEE4480F30009025E0D6
:1040F000E748844209D12A2006F0E0F8202006F0A3
:10410000E4FEDE481F30009018E0E248844209D106
:104110002B2006F0D3F8402006F0D7FED7483F30DA
:1041200000900BE0DC48844208D12C2006F0C6F851
:10413000802006F0CAFED1487F300090D749B06891
:1041400088420AD13068B0F5E13F06D100208DF8F1
:10415000040001218DF8051005E000208DF8040011
:1041600000218DF80510684606F0C3FEE0690020C6
:10417000E061206920F00300717908432061B07983
:1041800020B9206920F00400206112E0707910B994
:10419000B079022804D0707940B1B079012805D1F6
:1041A000206920F00400001D206102E06FF0030090
:1041B0005DE731680901B068B0FBF1F1606861F357
:1041C0000F0060603079022804D1206920F00800D7
:1041D000206111E0206940F0080020613079012859
:1041E00004D1206940F01000206105E0307918B951
:1041F000206920F010002061E06820F00100E060FC
:1042000000206061206A4FF0FF302062206940F496
:1042100080302061206940F400302061B4F1402FEB
:1042200002D19F48056028E09548844202D19C480D
:10423000456022E09348844202D1994885601CE0A1
:104240009148844202D19648C56016E08F48844266
:1042500002D19348056110E08D48844202D1904814
:1042600045610AE08B48844202D18D48856104E0B3
:104270008948844201D18A48C561B4F1402F02D1F6
:104280001220686029E07E48844202D113206860D1
:1042900023E07C48844202D1142068601DE07A4803
:1042A000844202D13C20686017E07848844202D101
:1042B0003D20686011E07648844202D13E2068606B
:1042C0000BE07448844202D13F20686005E07248E8
:1042D000844202D14020686000BF2C600020A88189
:1042E0003069E865002068742874A860A5F84C005F
:1042F000A5F84A00A5F85600A5F85400A5F85800FE
:10430000A5F84800E873A8736648FCF7E2F90020B6
:10431000ADE6014600BF00BF0868C06820F001009C
:104320000A68D0600868C06900200A68D0617047D8
:1043300000BF00BF41B9C26842F40072C260C268E7
:1043400022F48072C2601FE0012908D1C26842F4E1
:104350008072C260C26822F40072C26014E0022956
:1043600008D1C26842F40072C260C26842F480722E
:10437000C26009E0032907D1C26822F48072C260DA
:10438000C26822F40072C26070472DE9F843044607
:104390000E460027B846256804B10EB9BDE8F8837B
:1043A0004048FCF79FF93078A0817078A073B0780E
:1043B000E073F0782074307960740020A060A4F875
:1043C0004800A4F84C00A4F84A00A4F85800A4F847
:1043D0005600A4F85400E074A074A08990B9E8686D
:1043E00020F00100E86000BF284600F06BFD0028C7
:1043F000FAD0284600F0B8FD0090284600F0B4FD41
:10440000009030E0E86840F00100E860E86840F0C3
:104410000400E860E86840F00200E860284600F028
:104420008AFD284600F091FDA07B002804DDA07BDA
:10443000102801DCA77B00E00827E07B002805DDD1
:10444000E07B102802DC94F80F8001E04FF00808B0
:10445000A86920F01F003843A861A86920F4F8106B
:1044600040EA0840A861686A20F480306862686A9F
:1044700020F0010068620B4816E000000100001007
:10448000005000400060004000D003400010044095
:10449000002004400030044000400440006CDC0276
:1044A000004002C0842502C0FCF72DF900BF75E76B
:1044B00070B504460D4600BF00BF05F0010040B1D5
:1044C00000BFE06940F03000E06100BF204600F02E
:1044D00008FD05F0020030B100BFE06940F0400087
:1044E000E06100BF00BF05F0040030B100BFE0692B
:1044F00040F40030E06100BF00BF05F0080030B1BB
:1045000000BFE06940F48030E06100BF00BF70BDD3
:1045100070B504460D4600BF00BF05F0010040B174
:1045200000BFE06920F03000E06100BF204600F0ED
:10453000DDFC05F0020030B100BFE06920F0400072
:10454000E06100BF00BF05F0040030B100BFE069CA
:1045500020F40030E06100BF00BF05F0080030B17A
:1045600000BFE06920F48030E06100BF00BF70BD93
:1045700010B5044600BF00BF1BE0A089012806D18A
:1045800020688069C0F30420102805D315E0206856
:1045900000F093FC00B910E01034208F401E2087FB
:1045A000A38F5A1CA287626BD15C54F8100D00F0E7
:1045B000E0FCB4F848000028DFDC00BF10BD2DE9A6
:1045C000F04105460E461746002400BF00BF06BB5B
:1045D000A5F12C040CB9BDE8F0810020E07414347E
:1045E000208FA18E084420870020A086E08E218F96
:1045F000143C88420AD1A06820F00200A060E06D5F
:1046000020B1002208212046E36D98472846FFF795
:104610008AFA00BFDFE72DE9F04105460E4617464E
:10462000002400BF00BF06BBA5F114040CB9BDE80F
:10463000F0810020A0741A34A08FE18F0844A08775
:104640000020E087608FA18F1A3C88420AD1A068C1
:1046500020F00100A060E06D20B100221021204672
:10466000E36D98472846FFF75EFA00BFDFE72DE9C4
:10467000FF4104460D461746012600BF00BF002D2E
:104680007ED0B4F1402F06D16A460621FD48FFF7DF
:1046900060F8064644E0FC48844206D16A46082198
:1046A000F848FFF756F806463AE0F848844206D143
:1046B0006A460A21F348FFF74CF8064630E0F44812
:1046C000844206D16A460C21EE48FFF742F80646BE
:1046D00026E0F048844206D16A460E21E948FFF7F9
:1046E00038F806461CE0EC48844206D16A461021A0
:1046F000E448FFF72EF8064612E0E848844206D167
:104700006A461221DF48FFF724F8064608E0E4482D
:10471000844205D16A461421DA48FFF71AF80646A2
:104720000EB1BDE8FF8100200190029003909DF83A
:1047300000008DF804009DF801008DF805000220AE
:104740008DF8060001208DF8070000208DF8080084
:104750008DF8090001208DF80A0000208DF80B006B
:10476000D0480390606A20F4F8506062606A40F0BC
:1047700001006062606A20F4803060627EE0FFE7E2
:10478000B4F1402F06D16A460721BE48FEF7E1FF8B
:10479000064644E0BC48844206D16A460921B9482D
:1047A000FEF7D7FF06463AE0B848844206D16A468B
:1047B0000B21B448FEF7CDFF064630E0B4488442F2
:1047C00006D16A460D21AF48FEF7C3FF064626E034
:1047D000B048844206D16A460F21AA48FEF7B9FFC5
:1047E00006461CE0AC48844206D16A461121A54821
:1047F000FEF7AFFF064612E0A848844206D16A469B
:104800001321A048FEF7A5FF064608E0A44884420D
:1048100005D16A4615219B48FEF79BFF064606B167
:104820007FE700200190029003909DF800008DF832
:1048300004009DF801008DF8050001208DF80600A8
:1048400002208DF8070000208DF808008DF809007F
:1048500001208DF80A0000208DF80B00924803908B
:10486000606A20F0F85040F000606062606A40F4D6
:1048700080306062606A20F0010060623A4601A9FF
:104880008048FEF7D2FF00BF4BE72DE9F041044618
:104890000E4615461F464FF0000814B10EB1002D0C
:1048A00002DC0120BDE8F081207A00F0020008B1AE
:1048B0000220F7E77D48FBF715FFA4F84A5066642D
:1048C0000020A4F84C00A4F84850A06840F0020072
:1048D000A060607C80B104F12C0200212068FFF709
:1048E000C6FE0120E074B4F8483004F12C002268C0
:1048F000616CFFF74CF924E00FE02046FFF738FE2B
:10490000B81C10B94FF005080BE037B94834A0883F
:104910006080002024F8480903E0B4F8480000282B
:10492000EBDC00BFB4F8480058B9B4F84A00B4F85A
:104930004C10884205D1A06820F00200A0604FF022
:1049400000085A48FBF7DFFE4046ABE710B50446C7
:1049500000BF00BF1CE0A089012805D12068806944
:10496000C0F3046028B917E0206800F0B5FA00B978
:1049700012E01C34A08F401EA08754F81C0C00F0DD
:10498000F3FAC1B2628F501C6087606B1C3C81548B
:10499000B4F858000028DEDC00BF10BD2DE9F04758
:1049A00004460F4616461D46DDF820804FF00009EC
:1049B00014B10FB1002E02DC0120BDE8F087207A8F
:1049C00000F0010008B10220F7E73848FBF78AFE43
:1049D000A4F8546027650020A4F85600A4F8586095
:1049E000A06840F00100A0600DB131480560207C56
:1049F00080B104F1140201212068FFF738FE012084
:104A0000A074B4F8583004F11400226D2168FFF747
:104A1000BEF831E012E02046FFF798FF08F10200EF
:104A200010B94FF005090DE0B8F1000F06D154346C
:104A3000608820800020A080543C03E0B4F8580037
:104A40000028E8DC00BFB4F8580058B9B4F85400A6
:104A5000B4F85610884205D1A06820F00100A0608B
:104A60004FF0000915B1B4F856002880206800F016
:104A700059FA08B14FF001090C48FBF744FE4846CB
:104A80009BE7000000000240005000400060004032
:104A900000D00340001004400020044000300440D7
:104AA0000040044017460100BF450100842502C0B4
:104AB000882502C070B506460C4600BF00BF3568A9
:104AC000F848FBF70FFE0020606000BF686900F047
:104AD000010018B1606840F00400606000BF6869C0
:104AE000C0F3400018B1606840F00200606000BF91
:104AF0006869C0F3800018B1606840F00100606030
:104B000000BF6869C0F3C00018B1606840F00800D9
:104B1000606000BF6869C0F3001018B1606840F0C1
:104B200020006060284600F0CDF918B1606840F0C0
:104B300010006060307C18B9A869C0F30460208060
:104B4000707C18B9A869C0F304206080D548FBF7D1
:104B5000DAFD70BD2DE9F04106460C46154600BF52
:104B600000BF607C38BBB4F84A00B4F84C108842EF
:104B700008D105B3B069C0F304273A464021204666
:104B8000A84718E0A06840F00200A0602046FFF7A8
:104B9000EFFCB4F8480070B9B4F84A00B4F84C100F
:104BA000884208D1A06820F00200A0601DB1002258
:104BB00008212046A847BDE8F0812DE9F0410646CE
:104BC0000C4615461F4600BF00BF207C00283BD185
:104BD000B4F85400B4F85610884214D1A5B3206834
:104BE000C06800F0010078B3B069C0F30468012F19
:104BF00004D1424620212046A84725E04246802194
:104C00002046A84720E0A06840F00100A0602046B0
:104C1000FFF79CFEB4F85800B0B9B4F85400B4F8EB
:104C20005610884210D1A06820F00100A0609E4874
:104C3000006820B1B4F856009B49096808801DB18E
:104C4000002210212046A847BDE8F0812DE9F04759
:104C500006463746002F01DB082F01DBBDE8F08751
:104C6000924850F82740D4F80090E56D484600F08F
:104C700042F978B1484600F04CF958B1484600F086
:104C800043F9484600F04EF920B11DB1002204213D
:104C90002046A847484600F062F928B101232A4679
:104CA00021464846FFF789FFA089F0B9484600F041
:104CB0000EF9D0B1B4F85400B4F85610884206D0BA
:104CC00000232A4621464846FFF777FF0DE0484675
:104CD00000F002F948B1484600F046F900F0FF083C
:104CE0001DB1424602212046A847484600F0D0F8B0
:104CF000B8B1484600F0D1F898B1484600F0D8F86D
:104D0000B4F84A00B4F84C10884205D02A4621462F
:104D10004846FFF71FFF04E01DB100220121204695
:104D2000A847484600F016F940B1484600F00DF992
:104D300000232A4621464846FFF73FFF484600F039
:104D4000FFF838B1484600F0F6F82A4621464846B2
:104D5000FFF700FF00BF81E7014600BF086AC0F30C
:104D6000C010704710B50446204600F091F810BD01
:104D700010B50446204600F090F810BD10B504466A
:104D8000204600F095F810BD10B50446204600F00E
:104D9000D7F810BD014600BFC869C0F30040704796
:104DA00010B50446204600F0C6F810BD01468869DB
:104DB000C0F304207047014600BFC869C0F340102B
:104DC000704710B50446204600F081F810BD10B5BC
:104DD0000446204600F080F880B210BD10B50446AD
:104DE000204600F0BCF810BD10B50446204600F087
:104DF000B1F810BD10B50446204600F0A6F810BD6D
:104E000001468869C0F30460704710B50446204627
:104E100000F067F810BD10B50446204600F066F8B3
:104E200010BD10B50446204600F065F810BD10B561
:104E30000446204600F06DF810BD10B5044620462B
:104E400000F062F810BD0146C86800F0010070472C
:104E500070B504460D4600BF00BF00BF204600F0FD
:104E60002CF80028FAD02946204600F082F870BDC0
:104E700010B5044600BF00BF204600F075F810BD15
:104E80000246106A08407047026A0A43026270478D
:104E90000146C869C0F3801070470146086AC0F334
:104EA000C0107047842502C0882502C0004002C09F
:104EB000016A41F080010162704701464869C0F310
:104EC0008010704701464869C0F3C0107047014622
:104ED000086AC0F34010704701464869C0F34010AB
:104EE0007047C16941F00F01C1617047C16921F08C
:104EF0000F01C16170470146C86900F00F0008B199
:104F0000012070470020FCE7016A41F00F010162B7
:104F100070470146086A00F00F0008B10120704791
:104F20000020FCE70146486900F0170008B10120A5
:104F300070470020FCE7016A41F48031016270474C
:104F40000146086AC0F300407047016A41F400312D
:104F5000016270470146086AC0F34040704701464D
:104F6000086AC0F30010704701460868C0F30800E3
:104F700070470160704700000146002006E0FD4ACE
:104F800052F820208A4200D102E0401C0B28F6D3C0
:104F900000BF70474FF6FF70F74A926B02EA0001BC
:104FA00000BF00BF09B1F44A906370474FF6FF702D
:104FB000F24A926B02EA000100BF00BF09B1EF4A5A
:104FC000906370474FF6FF70ED4A926B02EA000162
:104FD00000BF00BF09B1EA4A906370474FF6FF7007
:104FE000E84A926B02EA000100BF00BF09B1E54A3E
:104FF000906370474FF6FF70E34A926B02EA00013C
:1050000000BF00BF09B1E04A906370474FF6FF70E0
:10501000DE4A926B02EA000100BF00BF09B1DB4A21
:10502000906370474FF6FF70D94A926B02EA000115
:1050300000BF00BF09B1D64A906370474FF6FF70BA
:10504000D44A926B02EA000100BF00BF09B1D14A05
:10505000906370474FF6FF70CF4A926B02EA0001EF
:1050600000BF00BF09B1CC4A906370474FF6FF7094
:10507000CA4A926B02EA000100BF00BF09B1C74AE9
:10508000906370474FF6FF70C54A926B02EA0001C9
:1050900000BF00BF09B1C24A9063704710B501203C
:1050A00005F00CF910BD10B5022005F0E6FE10BDAC
:1050B00010B5022005F0EBFE10BD00B91DE001287F
:1050C00000D11AE0022800D117E0032800D114E033
:1050D000042800D111E0052800D10EE0062800D1F7
:1050E0000BE0072800D108E0082800D105E00928D6
:1050F00000D102E00A2800D100BF70472DE9F84F27
:1051000006468A460025AB460027002000908046D0
:1051100081463046FFF730FF05460B2D03D2BAF823
:10512000000080B218B94FF0FF30BDE8F88F0024BE
:105130006CE0012000FA04FBDAF8000000EA0B073B
:105140005F4562D17761974850F8250062000321DE
:10515000914088436200002191400843914941F801
:10516000250090482C3050F8250062000321914022
:10517000884362000021914008438A492C3141F85C
:105180002500680000EBD400009086485830009954
:1051900050F821006107CA0E0F2191408843610732
:1051A000CA0E0021914008437E495831009A41F8C7
:1051B0002200E8074FEAD0684FEA550979483038AD
:1051C00050F8290004EB080201219140884304EBC8
:1051D00008020021914008437249303941F8290002
:1051E0007048183850F8290004EB0802012191405A
:1051F000884304EB080200219140084369491839AB
:1052000041F829007762F7627763641C102C90D311
:1052100000208AE72DE9F84F07460C460026B346E2
:10522000B04600200090814682463846FFF7A4FE33
:1052300006460B2E02D2208880B218B94FF0FF30FC
:10524000BDE8F88FFFF72FFFFFF728FF60680428FD
:1052500005D121463846FFF751FF0020F0E7002531
:1052600064E1012000FA05FB206800EA0B08D8453C
:105270007ED1606878B16068B0F1805F0BD04A4938
:105280006068884207D049496068884203D048492D
:10529000606888420ED1C7F8148042482C3050F81C
:1052A00026006A000321914088433E492C3141F891
:1052B00026004EE06068012824D1C7F810803948E4
:1052C0002C3050F826006A000321914020EA0101A9
:1052D00034482C3040F826102069032801D90020DA
:1052E0002061304850F826006A000321914088432D
:1052F000217C01F003016A0091400143294840F8F4
:10530000261026E06068032810D126482C3050F87B
:1053100026006A000321914088436A0003219140DE
:10532000084320492C3141F8260012E06068052826
:105330000FD11C482C3050F826006A000321914000
:1053400088436A0002219140014316482C3040F8FE
:1053500026106068022849D112482C3050F82600E7
:105360006A000321914088436A000121914021E0B5
:10537000DBE00000581C020000000140001001406A
:105380000020014000300140004001400050014039
:105390000060014000700140008001400090014029
:1053A00000A0014098020040000010100000011011
:1053B000000011100143F94840F82610700000EB7E
:1053C000D5000090F5482C30009950F8210069076D
:1053D000CA0E0F21914088436A07D20EE1689140BE
:1053E0000843EE492C31009A41F82200F0074FEAB9
:1053F000D069606890B16068B0F1805F0ED0E84914
:10540000606888420AD0E7496068884206D0E64969
:105410006068884202D06068022851D14FEA560A7B
:10542000A068012812D1DD485C3850F82A0005EB4D
:10543000090201219140884305EB090201219140B5
:105440000143D6485C3840F82A1039E0A0680228A9
:1054500012D1D248443850F82A0005EB0902012144
:105460009140884305EB0902012191400143CB485B
:10547000443840F82A1023E0C8485C3850F82A0025
:1054800005EB090201219140884305EB0902002147
:1054900091400143C1485C3840F82A10BF48443865
:1054A00050F82A0005EB090201219140884305EBE1
:1054B0000902002191400143B848443840F82A10BD
:1054C000606800F08050B0F1805F2ED16068B0F16C
:1054D000805F03D0B2496068884202D1C7F82C804F
:1054E00009E0B0496068884203D0AF4960688842EB
:1054F00001D1C7F828806068B0F1805F03D0A94966
:105500006068884202D1C7F8348009E0A449606825
:10551000884203D0A4496068884201D1C7F830802E
:10552000C7F820803046FFF7C8FD6D1C102DFFF432
:1055300098AE002084E611B90022026009E0C0F3B1
:10554000C0220AB1082300E00023C0F387029A407A
:1055500002607047014600200A680AB1012200E09B
:10556000002202B101207047016809B1012100E069
:10557000002111B10021016009E0C0F3C02109B18F
:10558000082200E00022C0F38701914001607047CB
:1055900030B5040B22030023C0F3C0240CB108254E
:1055A00000E00025C0F3870404FA05F3012901D1C6
:1055B000536101E001B9136130BD10B50346180B0A
:1055C000020311B94FF0FF3010BD08680F2808D84A
:1055D00048680C2805D88868032802D8087B012869
:1055E00002DD4FF0FF30EFE70C7802F54062106803
:1055F00064F31F701060106820F470208C8840EAFB
:1056000004401060106820F030008C6840EA0410FC
:105610001060106820F001000C7B20431060A2F5A0
:1056200040620020D0E72DE9F05F80460F464FEA48
:1056300018304FEA003900250024A2460026A34670
:105640004846FFF799FC04460B2C02D3681EBDE8C0
:10565000F09FC8F3C02008B1082100E00021C8F382
:10566000870000FA01F51FFA85FBBBF5807F4BD060
:105670001ADCBBF1100F3BD00CDCBBF1010F2BD0BF
:10568000BBF1020F2BD0BBF1040F2BD0BBF1080FE5
:1056900052D12AE0BBF1200F2DD0BBF1400F2DD00D
:1056A000BBF1800F48D12CE0BBF5805F38D009DC1E
:1056B000BBF5007F2BD0BBF5806F2BD0BBF5006F07
:1056C0003AD12AE0BBF5005F2DD0BBF5804F2DD03D
:1056D000BBF5004F30D12CE04FF0000A2DE04FF029
:1056E000010A2AE04FF0020A27E04FF0030A24E003
:1056F0004FF0040A21E04FF0050A1EE04FF0060AC1
:105700001BE04FF0070A18E04FF0080A15E04FF0D1
:10571000090A12E04FF00A0A0FE04FF00B0A0CE002
:105720004FF00C0A09E04FF00D0A06E04FF00E0AA8
:1057300003E04FF00F0A00E000BF00BF00BF387B5E
:10574000002874D00CB1012C0DD10CB9284600E012
:10575000280406461148A438006830434FF08041C1
:10576000C1F820022FE1022C01D0032C0ED1022C13
:1057700001D1284600E0280406460848A038006801
:1057800030434FF08041C1F824021CE1042C01D0C9
:10579000052C15D1042C09D1284608E0C40200408C
:1057A000000010100000011000001110280406462F
:1057B0008648006830434FF08041C1F8280202E17A
:1057C000062C01D0072C0ED1062C01D1284600E072
:1057D000280406467D48001D006830434FF0804194
:1057E000C1F82C02EFE0082C01D0092C0ED1082CB6
:1057F00001D1284600E028040646744808300068B5
:1058000030434FF08041C1F83002DCE00A2CA9D1CE
:1058100001D1284600E0280406466C480C30006898
:1058200030434FF08041C1F83402CCE0FFE70CB1C7
:10583000012C0DD10CB9284600E028040646634827
:1058400008380068B0434FF08041C1F8200259E0A9
:10585000022C01D0032C0ED1022C01D1284600E0ED
:10586000280406465948001F0068B0434FF08041A5
:10587000C1F8240246E0042C01D0052C0DD1042CE3
:1058800001D1284600E02804064650480068B0438D
:105890004FF08041C1F8280234E0062C01D0072CDB
:1058A0000ED1062C01D1284600E0280406464748C0
:1058B000001D0068B0434FF08041C1F82C0221E088
:1058C000082C01D0092C0ED1082C01D1284600E06B
:1058D000280406463D4808300068B0434FF0804138
:1058E000C1F830020EE00A2C0CD101D1284600E0AC
:1058F0002804064635480C300068B0434FF080411C
:10590000C1F83402324800686200032191408843A4
:10591000397901F003016200914008432C49086085
:105920003868012801D00020386039782848001FE5
:10593000006861F301004FF08041C1F8BC000846E7
:10594000D0F8BC0040F480302149091F0860786815
:1059500030B1012814D0022822D0032831D12FE001
:105960001B48001F006820F45C504FF44072B96877
:1059700002EA011108434FF08041C1F8BC0021E068
:105980001348001F006820F45C504FF4E062B968CF
:1059900002EA012108434FF08041C1F8BC0011E048
:1059A0000B48001F006820F45C504FF44052B96867
:1059B00002EA013108434FF08041C1F8BC0001E028
:1059C00000E000BF00BF002041E6000028020040C8
:1059D000C000004010B5024602B109B9012010BD57
:1059E000106840F6F873984310600B690868184314
:1059F0008B681843CB6818434B6818434B691843AE
:105A0000CB6918431368184310600868102811D137
:105A1000087E4B7E4FF47F4404EA032318438B7EB9
:105A2000240204EA03431843CB7E240204EA0363FE
:105A3000184390610020D2E710B50446206840F476
:105A400080402060206820F0020020602068084329
:105A50002060E26298082063206840F00110206016
:105A6000002010BD0146086820F001100860086899
:105A700020F480400860002070470346D9629008F7
:105A800018630020704770B50446049DC3F30D00F1
:105A9000484E06EA054630436062C1F30D00464EAB
:105AA00006EA024630432062002070BD01460868C5
:105AB00020F004000860002070470146086840F0AC
:105AC00004000860002070470146086820F00100CB
:105AD0000860002070470146086840F00100086037
